:100000000C9495030C94B2030C94B2030C94B203B9
:100010000C94B2030C94B2030C94B2030C94B2038C
:100020000C94B2030C94B2030C943B280C94F72765
:100030000C9438290C94B2030C94B2030C94B203C0
:100040000C94B2030C94B2030C94B2030C94B2035C
:100050000C94B2030C9414290C94B2030C94B203C4
:100060000C94B2030C94B2030C94B2030C94B2033C
:100070000C94B2030C94B2030C94B2030C94B2032C
:100080000C94B2030C94B2030C94B2030C94B2031C
:100090000C94B2030C94B2030C94B2030C94B2030C
:1000A0000C94B2030C94B2030C94B2030501090240
:1000B000A10185020901A100050919012905150001
:1000C00025019505750181029501750381010501E1
:1000D000093009311581257F950275088106093897
:1000E0001581257F950175088106050C0A380215D2
:1000F00081257F950175088106C0C005010980A191
:1001000001850319012AB700150126B7009501756D
:10011000108100C0050C0901A101850419012AA064
:1001200002150126A002950175108100C005010984
:1001300006A1018506050719E029E71500250195A7
:1001400008750181020507190029EF1500250195A1
:10015000F0750181020508190129059505750191C0
:1001600002950175039101C00660FF0961A10109B3
:1001700062150026FF0095207508810209631500AD
:1001800026FF00952075089102C005010906A1010E
:10019000050719E029E71500250195087501810279
:1001A0009501750881010507190029FF150026FF33
:1001B0000095067508810005081901290595057542
:1001C000019102950175039101C0FD377A585A00DB
:1001D0000004E6D6B4460200210116000000742F88
:1001E000E5A3E0018900BC5D003D8889C65436C3A3
:1001F000174FE4E46507F4B3ADADBF038EAAC7495A
:1002000047DC16B984E1F8BFB73ACE9DDBBCB9FA3A
:1002100093A8B952A6230FB7CD742F1BE0C5925BEC
:100220004B47EF29F6187B2B094F66E704B562911F
:100230004EC9D5565CF37507977CA5DBCCD255D952
:1002400000CD0FE165CD1DEF7A640DDEFD5C73928C
:100250002411E79D19965CC49A283900179754FA1F
:100260009BD1237266FACC8A851333D71C1F73F88F
:100270002B7DD68E6A8D5D7F9DBF12D18AE2FFE90C
:10028000CCCCF55BCFD54CADC3227C377A15A99782
:100290000ACD98230CB0C53841C1A70B4D74A2C03C
:1002A000663CFCBC9A0053EA3A2BD9FC4F2D000166
:1002B000D8018A030000298BFA80B1C467FB0200D1
:1002C00000000004595A14001A0009001300050028
:1002D0000D000F0004000000000000000A001000E4
:1002E00000001D001B000600070019000E000B0097
:1002F00000000000290000002C000000E1001800B0
:100300001C0033000000000012000000360037001F
:1003100038002800000000000000570024002500DD
:1003200026005500230222022700000000000000E2
:1003300054002E00000056001E001F002000630025
:100340002D001E0200000000290001002C002A00E0
:10035000E100240231003500000000001F0200000F
:100360002F00300038022800000000000000AC0020
:10037000AE003900AB003E003F00440000004400E6
:10038000450000003C003D000000390046004700E9
:1003900048003A003B004000000000002900010036
:1003A0002C002A00E1004500460047000000000044
:1003B0004A000000410053004D00280000000000EA
:1003C000000000001E001F0020002100220023006A
:1003D0002B0014001A000800150017001C00E10093
:1003E00004001600070009000A000B00E0001D00D1
:1003F0001B0006002C001900050024002500260023
:1004000018000C00120013000D000E000F00110068
:100410001000360000000000F500F000F6000000BB
:1004200000000000F400F200F100F3000000000002
:1004300000005000520051004F000000000000007A
:1004400000000000000000000000000000000000AC
:10045000000000000000000000000000000000009C
:10046000000000000000000000001E001F0020002F
:10047000210022002300240014001A0008001500A7
:1004800017001C00180004001600070009000A00ED
:100490000B000D001D001B00060019002C000500BC
:1004A00011002500260027000C0012001300340064
:1004B0000E000F0033001000360037003800010036
:1004C000010026030D0EF20D0000020002002203BF
:1004D0000D0EF20D00000300010027030D0EF20DBA
:1004E0000000040002000C030D0EF20DB80605001A
:1004F000010028030D0EF20D0000060002000E039D
:100500000D0EF20D00000700020024030D0EF20D87
:1005100000000800010029030D0EF20D0000090083
:10052000020010030D0EF20D93060A0002001203E2
:100530000D0EF20D93060B00020014030D0EF20DCA
:1005400093060C00020016030D0EF20D93060D002B
:10055000020018030D0EF20D93060E0002001A039E
:100560000D0EF20D93060F0002001C030D0EF20D8E
:100570009306100002001E030D0EF20D93061100EB
:10058000020020030D0EF20D9306120002002A0352
:100590000D0EF20D0000130002002C030D0EF20DE3
:1005A0000000140001002E030D0EF20D00001500D6
:1005B0000000000019065A140000000000000000AE
:1005C000000000000000000000000000000000002B
:1005D00000000000000000000000000000007E0F8E
:1005E00000D4FFFFFFC700000078000000000000FB
:1005F00000002A2B2800000000000000000000007E
:10060000000000000029000000002C1E34202122E0
:1006100024342627252E362D3738271E1F20212249
:10062000232425263333362E37381F0405060708C2
:10063000090A0B0C0D0E0F101112131415161718B2
:10064000191A1B1C1D2F3130232D350405060708F0
:10065000090A0B0C0D0E0F10111213141516171892
:10066000191A1B1C1D2F3130354C09025B00030188
:1006700000A0FA0904000001030101000921110191
:100680000001224000070581030800010904010060
:1006900002030000000921110100012222000705C8
:1006A0008203200001070503032000010904020062
:1006B000010300000009211101000122BC0007050F
:1006C0008403200001120100020000000866667029
:1006D000660200010203011C037600690061006CE0
:1006E000003A0066003600340063003200620033D6
:1006F00000630000001E0350003400320076003218
:100700000020004B006500790062006F00610072FC
:1007100000640000000E0350006100620069006C7C
:100720000065000000040309040011241FBECFEF80
:10073000DAE0DEBFCDBF11E0A0E0B1E0ECE5F2E62B
:1007400002C005900D92A037B107D9F723E0A0E7CA
:10075000B1E001C01D92A53FB207E1F70E945F29F9
:100760000C9408310C940000E8EDF0E080818E7F5D
:1007700080831092E2001092DA001092E100A0EE65
:10078000B0E08C9181608C9380818F77808319BCDD
:10079000A7EDB0E08C918E7F8C9380818F7E8083DB
:1007A0001092C40308952091E4003091E50095E68D
:1007B000A9012091EC00822F817020FF06C080915A
:1007C000E80080FF06C080E008952091E80022FD47
:1007D0001AC08091E903882389F0853089F08091DF
:1007E000EB0085FD0FC02091E4003091E500421739
:1007F0005307F9F29150E1F684E0089582E00895FC
:1008000083E0089581E00895EF92FF920F931F9384
:10081000CF937C018B010E94D303C82F811117C095
:100820008091E80085FD0BC08091E8008E77809371
:10083000E8000E94D303882399F3C82F08C0F7016A
:1008400081917F018093F1000150110949F78C2FAC
:10085000CF911F910F91FF90EF9008958091EB033E
:1008600087FF13C08091E80082FF06C08091E800F6
:100870008B778093E80004C08091E9038111F2CF67
:1008800008958091E9038823D9F38091E80080FFDF
:10089000F8CF8091E8008E77ECCF982F9093E90005
:1008A000242F762F50E0891731F07091EC002091C1
:1008B000ED005091F00021FD07C09F5F973071F768
:1008C0008093E90081E008953091EB003E7F309302
:1008D000EB003091ED003D7F3093ED003091EB0067
:1008E00031603093EB007093EC002093ED00509357
:1008F000F0002091EE0027FDE0CF80E00895B0E009
:10090000A0E0E5E8F4E00C945B30C8EDD0E088812D
:100910008F7E8883E7EDF0E080818160808384E0D2
:1009200082BF81E08093C40388818E7F888302EE3A
:1009300010E0F80110821092DA0081EEC82ED12C5E
:10094000F601108288818F77888388818068888308
:1009500088818F7D888319BC1092E9031092EA0385
:100960001092E8031092E70390EEE92EF12CF701C4
:1009700080818B7F808388818160888342E060E012
:1009800080E00E944D04F60180818E7F8083F80113
:10099000808181608083808188608083F70180818D
:1009A0008E7F8083888180618883CDB7DEB7E8E061
:1009B0000C947730FC018091F1039091F20386173B
:1009C0009707A0F06115710529F49091E8009E77D2
:1009D0009093E80090E06115710551F4911108C001
:1009E0008091E80082FF34C080E00895BC01F2CF1E
:1009F0008091E9038823C1F18530C1F18091E8003D
:100A000083FD30C08091E80082FDEACF8091E8004C
:100A100080FFE1CF8091F3002091F200382F611523
:100A2000710519F02830310558F091E02830310572
:100A300009F090E02091E8002E772093E800CBCFDA
:100A400081918093F100615071092F5F3F4FE7CF93
:100A50008091E903882341F0853041F08091E800DE
:100A600083FFBECF81E0089582E0089583E008957A
:100A700008958091C603089587E797E7909301084A
:100A80008093000888E19AE00FB6F894A8958093C7
:100A900060000FBE90936000FFCF9C014FB7F894A9
:100AA0008091BB039091BC03A091BD03B091BE03A4
:100AB0004FBF821B930B08952FB7F8948091BB030F
:100AC0009091BC03A091BD03B091BE032FBF0895C8
:100AD00020911A012223C9F02091BF0327FF15C0DE
:100AE000E62FE695E695E695EE31D8F4E80FF92F76
:100AF000F11D677021E030E001C0220F6A95EAF72E
:100B000020958281282322830895FC01329608963D
:100B10002191621303C0DF0111971C92E817F907B6
:100B2000B9F708952091B8033091B9032817390710
:100B300071F09093B9038093B803E091B603F091FC
:100B4000B703309721F00084F185E02D09950895D1
:100B50002091B4033091B5032817390771F09093B1
:100B6000B5038093B403E091B603F091B7033097D7
:100B700021F00680F781E02D09950895E091B603F4
:100B8000F091B703309729F00190F081E02D09959D
:100B9000089580E00895452B39F0682381E06F3F88
:100BA00009F080E08170089581E0FCCFDC01609164
:100BB000AE038091AF03962F891301C00895292FAA
:100BC00030E0F901EE0FFF1FEA55FC4F40815181E3
:100BD0004A175B07A1F487E08A9FA0018B9F500D05
:100BE000112448565C4F81E0FA0184839613E6CFC6
:100BF0002F5F3F4F237033272093AE0308952F5F5D
:100C00003F4F922F9370D8CF109235031092340338
:100C100080919D03811104C010929C0310929E0349
:100C20008091A403811104C01092A3031092A50324
:100C30000895B0E0A0E0EFE1F6E00C9459308FEFBA
:100C40009FEF4430510508F469C04091BF0341FB58
:100C5000882780F990E0880F991F42FB002700F950
:100C600010E0000F111F000F111F802B912B40FB74
:100C7000CC24C0F8D12C8C299D2943FB222720F9B4
:100C8000C22FE0E0DE2F53E0CC0FDD1F5A95E1F7D5
:100C90008C2B9D2B44FBAA27A0F9B0E0E4E0AA0F1F
:100CA000BB1FEA95E1F78A2B9B2B45FBEE27E0F96A
:100CB000F0E0A5E0EE0FFF1FAA95E1F78E2B9F2B2A
:100CC00046FB222720F930E0B6E0220F331FBA9509
:100CD000E1F7822B932B47FB222720F930E0369552
:100CE000322F222737952795822B932B2091C003F3
:100CF000322F3170F32EE82EF92A26952170B22E6C
:100D0000BB0CA82EBF28C501BB0CAA0BBB0BFB015B
:100D100080839183A283B38390E080E0CDB7DEB778
:100D2000EAE00C947530ECE0F3E0848195812AE0F0
:100D300030E0B9010E941C306093150186818093D8
:100D40001401828580931301848580931201868526
:100D50009785B9010E941C306093110180898093AE
:100D60001001828980930F01848980930E01089578
:100D700080910C0390910D039093170180931601BD
:100D80000895EFE5F2E090E080E06CE577E243E87B
:100D900057E221ED36E277836683518740873387B8
:100DA00022879587848701963E968830910599F72A
:100DB000089581152CE5920741F420910C013091A2
:100DC0000D01232B11F490E080E008950E945C0552
:100DD0009C019091490280914A02982B21F0309316
:100DE00046022093450290914B0280914C02982B31
:100DF00021F03093440220934302E091B603F09136
:100E0000B703309749F082E0809347020480F58170
:100E1000E02D87E492E00995089590914902803F82
:100E200059F480914A0287FF0DC010924A02911135
:100E30000BC01092410208C0813F81F480914A02A8
:100E400018169CF3992381F080914B0290914C02EB
:100E5000892B09F064C0109240020895823F49F442
:100E600097FFF0CF1092490280914A028111ECCF96
:100E7000E0CF833F19F41916ACF3E4CF20914B0275
:100E8000893F29F41216F4F610924B02DBCF8A3F09
:100E900019F427FFD7CFF8CF20914C028B3F29F4CC
:100EA00027FFD0CF10924C02CDCF8C3F19F41216F1
:100EB000CCF3C8CF843F31F4809148028E7F809379
:100EC0004802C0CF853F21F4809148028D7FF7CF43
:100ED000863F21F4809148028B7FF1CF873F21F438
:100EE00080914802877FEBCF883F21F480914802B0
:100EF0008F7EE5CF8D3F31F4809142028E7F8093CB
:100F00004202A0CF8E3F21F4809142028D7FF7CF25
:100F10008F3F09F097CF809142028B7FF0CF0895E9
:100F20008091420280FF0CC060910F0170E07595C6
:100F30006795759567956115710549F1862F089537
:100F400081FF06C060910F0170E075956795F3CF42
:100F500060910F0182FD0BC0909140029923A1F096
:100F600060910E0180910F01961738F0682F70E0A4
:100F70006038710500F38FE70895899FC00111243F
:100F800070E00E943030F4CF61E070E0D7CF81E0B4
:100F9000089580914202609114037091150380FFBF
:100FA00016C020911301269FC001279F900D112488
:100FB000BC0176956795769567956038710508F060
:100FC00043C06115710509F441C0862F089581FF62
:100FD0000BC020911301269FC001279F900D112463
:100FE000BC0176956795E9CF82FF09C08091130116
:100FF0009B01829FB001839F700D1124DECF209151
:1010000041022223D1F29091120180911301482FC5
:1010100050E0291748F0CB01849FB001859F700DE7
:10102000949F700D1124C9CF289F90011124269FF1
:10103000A001279F500D369F500D1124692F70E09D
:10104000CA010E941C30B9CF8FE7089581E008954E
:10105000803F31F40E94C907819580934A02089528
:10106000813F19F40E94C907F8CF823F31F40E94F2
:10107000C9078195809349020895833F19F40E941E
:10108000C907F8CF893F29F40E94900780934B024B
:1010900008958A3F21F40E9490078195F7CF8B3FF6
:1010A00031F40E949007819580934C0208958C3F03
:1010B00019F40E949007F8CF843F31F480914802E0
:1010C0008160809348020895853F21F48091480211
:1010D0008260F7CF863F21F4809148028460F1CF8F
:1010E000873F21F4809148028860EBCF883F21F44C
:1010F000809148028061E5CF8D3F31F480914202BA
:1011000081608093420208958E3F21F480914202D3
:101110008260F7CF8F3FB9F7809142028460F1CFB0
:1011200080E00895F894E82FE295EF70F0E031A1A7
:10113000282F2F7081E090E001C0880F2A95EAF7F0
:10114000982F9095932391A392A1892B82A37894B1
:1011500008959091BF0392FF06C0282F2871283070
:10116000F9F4877F846093FF06C0282F2871283107
:10117000F1F4877E84612091C00320FF06C0382FE0
:1011800038713830D9F4877F816021FF06C0282F5D
:1011900028712831D1F4877E816194FD877E08957E
:1011A000282F24712430F9F68B7F8860DCCF282F1C
:1011B0002471243101F78B7E8861DDCF382F3171A6
:1011C000313019F78E7F8860E0CF282F21712131CF
:1011D00021F78E7E8861E1CFCF93DF93EC018238D7
:1011E0009105B1F108F040C08133910509F49DC02B
:1011F00048F58932910509F48DC08A9709F49CC09D
:10120000C11521E5D20708F0C3C0C11530E5D307E9
:1012100008F01EC1C83ED10508F0A3C0C13ED105EB
:1012200088F5C83AD10508F08EC0C53AD10508F056
:1012300007C1C130D10531F1209721F1C430D1056A
:1012400008F545C08533910509F45FC0C997C1F61B
:101250008091BF03837009F044C18091C00383FF74
:1012600011C0C9E2D0E00EC0833E910599F170F43F
:10127000803E910501F1823E910511F68091BF03F8
:1012800082FD21C0CE01DF91CF910895863E910568
:1012900061F1873E910571F1843E910509F0B0CF6F
:1012A0008091C00381FFEECF8091BF03C7EED0E0F5
:1012B00084FD0DC0E7CF8091BF0380FD33C09091C6
:1012C000C00390FFDFCFC3EED0E084FFDBCFD0E0E0
:1012D000C0E0D8CF8091BF0382FD00C19091C003D0
:1012E00090FDFFC084FFCECFF2CF8091BF0383FD7E
:1012F000DDCFC8CF8091BF0383FDF6C09091C003BE
:1013000091FFF0CFC4EED0E0BDCF8091BF0385FF49
:10131000B9CFA7CF8091BF0385FDE9C08091C003FD
:1013200083FFB0CFC9E3D0E0ADCF8091BF0386FF8C
:10133000A9CFCAE2D0E0A6CF8091BF0386FFA2CF9B
:10134000C1E3D0E09FCFCF3BD10508F6C85AD0E02B
:10135000CC0FDD1FCA5DDE4F0990D881C02DD4644B
:1013600091CFC11540E2D40758F4C11581E0D807E8
:1013700008F088CFC03FD10508F4A9CFD06582CF4F
:10138000C11520E4D20708F4A2CFDF70D06A7ACF6B
:10139000C11535E5D30718F5C11544E5D40708F0A4
:1013A00085C0C11583E5D80708F06CC0C11522E5DA
:1013B000D20708F462C0CE018370992721E030E0A3
:1013C00002C0220F331F8A95E2F7C695C69580E2C8
:1013D000C89FE0011124C22BD32BDC6853CFC11569
:1013E00039E5D307A8F4C11548E5D40708F063C070
:1013F000C11586E5D80708F06ACF8C2F0E94A9088E
:10140000C82FD0E0DC2FCC27CC27DF71D0623ACFB9
:10141000C1152AE5D20708F453C0CE0190568115B4
:10142000904208F054CF8D2F8F710E94A90890E050
:10143000982F882788279F719C012C2BE901E6CFE4
:10144000C55AD0E0CD5DDE4FC881D0E0D0641ACF60
:101450002C2F26952695237040E2249F900111247D
:101460008C2F8370C1E0D0E002C0CC0FDD1F8A95C5
:10147000E2F7C22BD32BDD6805CFDC2FCC27C16F61
:10148000D06A00CFCE018370992721E030E002C0FE
:10149000220F331F8A95E2F7C695C69540E2C49F96
:1014A000E0011124C22BD32BDA68ECCEDC2FCC2741
:1014B000C46FD06AE7CEDC2FCC27C06FD06AE2CEF3
:1014C0008C2F8F700E94A90834E0D695C7953A9565
:1014D000E1F7CF709C2FEC01D069D4CEC2EED0E002
:1014E000D1CEC0EED0E0CECEC6EED0E0CBCEC5E3BE
:1014F000D0E0C8CE80911902882331F010921902F1
:1015000010921802109217020895CF93C82F80915D
:10151000C00382FF0CC0809119028C1741F00E9419
:101520005C059093180280931702C0931902CF9123
:10153000089580959091F40398239093F40308956F
:1015400080959091EB0298239093EB0208959091EF
:10155000EB02892B8093EB0208951092F601109212
:10156000F5011092F401089580910E0390910F03FC
:10157000892B89F00E945C05209117023091180296
:10158000AC01421B530B81E020910E0330910F03FD
:101590004217530708F480E0817008952091F30109
:1015A0009091B201291302C080E0089530E0F90162
:1015B00053E0EE0FFF1F5A95E1F7ED54FE4F5181B6
:1015C000561306C05081581303C05281541304C0EF
:1015D0002F5F3F4F2770E6CF81E008958091F301A0
:1015E0009091B201981301C008958F5F8770FACF70
:1015F000292F963078F5873068F590E037E0239F03
:10160000800D911D1124682F677023E096958795B2
:101610002A95E1F7FC01EE0FFF1FE80FF91FE856CE
:10162000FE4F50E040E080E0219130E0062E02C005
:10163000369527950A94E2F721703327042E01C0CE
:10164000220F0A94EAF7822B4F5F5F4F4330510518
:1016500059F7089580E00895292F963098F587303E
:1016600088F590E037E0239F800D911D1124282FED
:10167000277041E001C0440F2A95EAF723E09695D0
:1016800087952A95E1F7FC01EE0FFF1FE80FF91F80
:10169000E856FE4F30E020E070E05191DF011197F5
:1016A000CB01022E02C0969587950A94E2F78170CD
:1016B00081958527842385278C932F5F3F4F233087
:1016C000310559F7089592959F70963091F058F42E
:1016D000925F9F70923058F4803F19F030F4883E4A
:1016E00030F481E008959A5FF4CF843FD1F380E035
:1016F0000895883EB0F3813FD1F7F3CF9C013A952E
:1017000021153F4150F5FC01EE27F170BC01662721
:101710007270AC01442754709C012227387094FFEA
:101720000EC080E1EF2B09F480E0672B09F08062A6
:10173000452B09F08064232B89F08068089581E0AF
:10174000EF2B09F480E0672B09F08260452B09F04C
:101750008460232B19F08860089580E008958093B9
:10176000C1037093C3036093C2038091E903843083
:10177000F9F48093E9008FEF9091E800815095FD96
:1017800006C095ED9A95F1F700008111F5CF809193
:10179000E80085FF0DC050E040E063E070E081ECC0
:1017A00093E00E9404048091E8008E778093E80023
:1017B0000895BC0184E00E94AF0B0895BC0183E052
:1017C0000E94AF0B08959C0184E08093E9009FEF95
:1017D0008091E800915085FD06C085ED8A95F1F76E
:1017E00000009111F5CF8091E80085FF0CC050E01A
:1017F00040E066E070E0C9010E9404048091E800C6
:101800008E778093E8000895CF93DF93EC01809169
:101810001A018823B1F18091BF0387FF32C060E2D3
:1018200084E08093E9008FEF9091E800815095FD6E
:1018300006C095ED9A95F1F700008111F5CF8091E2
:10184000E80085FF1BC080911A0170E050E040E085
:10185000811104C050E040E068E070E0CE010E94D9
:1018600004048091E8008E778093E80080E2FE0116
:10187000A7ECB3E001900D928A95E1F7DF91CF914B
:10188000089568E081E0CDCF019708F40895EFE96D
:10189000FFE03197F1F700C00000F6CF6091E7025A
:1018A0008CE090E00E94CC300895CF93DF93C7EA9C
:1018B000D2E060E0CE010E94CC302196C11584E0D8
:1018C000D807B9F7DF91CF9108951F93CF93DF9396
:1018D000122F8630E0F46630D0F44730C0F4C42FC5
:1018E000D0E0CC0FDD1F9EE0699FC00DD11D1124FB
:1018F00094E5899FC00DD11D1124632FCE018796D9
:101900000E94CC30612FCE0188960E94CC30DF91AE
:10191000CF911F910895CF93C82F6FEF81116FE87A
:1019200083E290E00E94CC306FEFC11165E884E261
:1019300090E00E94CC306FEFC11167E385E290E048
:101940000E94CC30CF910895CF93C92F682F84E0A7
:1019500090E00E94CC306C2F82E290E00E94CC306C
:10196000CF9108950F931F93CF93DF930CE013E073
:10197000CFE1D2E0CE010E94BE30F80161918F012B
:10198000681719F0CE010E94CC302196C334F2E0E2
:10199000DF0781F7DF91CF911F910F9108950F938A
:1019A0001F93CF93DF930CE013E0CFE1D2E0CE01A1
:1019B0000E94BE30F80181938F012196C334F2E07A
:1019C000DF07A9F7C8ECD4E0FE0185919491009758
:1019D00011F0FC0109952C96F5E0C43CDF07A1F756
:1019E000DF91CF911F910F9108950F931F93CF9384
:1019F000DF93863030F5663020F5473010F5C42F80
:101A0000D0E0CC0FDD1F2EE0629FC00DD11D112450
:101A100034E5839FC00DD11D1124CE0187960E940D
:101A2000BE30082F10E0102F0027CE0188960E94AC
:101A3000BE309801282BC901DF91CF911F910F91E2
:101A4000089590E080E0F8CF462F2091E502309194
:101A5000E602232B99F4703F39F4603F79F48091CA
:101A6000E3029091E4020895863040F4763030F439
:101A7000673020F4672F0E94F50C089590E080E015
:101A80000895CF92DF92FF920F931F93CF93DF932E
:101A90006C010091F30380911A02082BC7E0D0E09B
:101AA00010E0FC2EC8010C2E02C0959587950A9473
:101AB000E2F780FD0CC02197A0F7F12C8F2DDF916C
:101AC000CF911F910F91FF90DF90CF900895B601B5
:101AD0008C2F0E94240D0E94EC08019761F3EECF39
:101AE000CF93DF93EC010E94410DBE010E94240DB3
:101AF0000E94EC08DF91CF910895CF93DF93EC0122
:101B00004B815C81698188810E94CB05811110C065
:101B10008E819F81009739F00E94EC080E94630B30
:101B2000DF91CF910895888199810E94700DF6CF41
:101B300080E0F6CFA5E0B0E0E0EAFDE00C94603094
:101B400049835A8389819A81662399F0222389F0F7
:101B50000E94410D182F682F89819A810E942C0BB9
:101B600069817A81812F0E94240D2596E3E00C94EF
:101B70007C300E94F80A182FF3CFFC01262F8681B3
:101B80009781009739F4408151816281738184810A
:101B90000E949A0D089583E290E00E94BE308F3833
:101BA00089F484E290E00E94BE30853859F485E2E1
:101BB00090E00E94BE3091E0873309F090E0892FD9
:101BC0008170089580E0FCCFCF9384E090E00E9484
:101BD000BE30C82F82E290E00E94BE30982F8C2F3A
:101BE000CF910895DA019C012E5F3F4FF901459195
:101BF0005491F90125913491A217B30758F0FC01D3
:101C00003496859194910E949E300E94B20C90E08F
:101C100080E008958FEF9FEF0895DB01FC0132967D
:101C2000259134914217530758F0FC013496659181
:101C30007491A901CD010E949E3090E080E008954A
:101C40008FEF9FEF08959B01883070F49AE0899F91
:101C5000B00111246D5B7D4F4AE050E0C9010E9444
:101C6000AE3090E080E008958FEF9FEF0895AAE0F6
:101C7000B0E0EDE3FEE00C9461309C0137552F3F5E
:101C8000310509F068F4BE016F5F7F4F0E94230E9B
:101C9000892B31F489859A852A96E2E00C947D306F
:101CA0008091240390912503F7CFAAE0B0E0EBE503
:101CB000FEE00C945F30EFECF2E084E1DF011D9276
:101CC0008A95E9F72AE933E08CE0D9011D928A95DB
:101CD000E9F708E913E0D801ED93FC934AE050E0FE
:101CE00063E972E0CE0101960E94AE3088E0FE0109
:101CF0003196AFECB2E001900D928A95E1F78985BB
:101D00009A85F8019383828389ED92E09087878397
:101D10004AE050E06DE972E0CE0101960E94AE30DB
:101D200088E0FE013196A9EDB2E001900D928A950E
:101D3000E1F789859A85D8011A969C938E93199715
:101D40002A96E4E00C947B30A6E0B0E0EAEAFEE0FC
:101D50000C9458308E010F5F1F4F86E0F8011192EE
:101D60008A95E9F784E5C82E81E0D82EF12CE12C84
:101D7000AA24A394B12CF60181916F018F3F09F43D
:101D800043C0F894E82FE295EF70F0E021A18F7046
:101D9000A50102C0440F551F8A95E2F7CA01922F90
:101DA000982B91A392A18095892382A3789400C057
:101DB000EAE5F1E0912C31E021912F3F09F465C073
:101DC000A22FA295AF70B0E090968C9190E02F700A
:101DD00002C0959587952A95E2F780FD56C0832F1E
:101DE000982A330F51E0E136F50731F7F6013197C4
:101DF00080818F3F11F00E94920880EA8A95F1F766
:101E0000F801EE0DFF1D9082EFEFEE1AFE0AF6E0EC
:101E1000EF16F10409F0AFCF46E050E0B8018EE1D3
:101E200092E00E949130892B91F186E0F801AEE1B9
:101E3000B2E001900D928A95E1F781E080931D0256
:101E40000E945C0590931C0280931B0280911B02F0
:101E500090911C020E944D050597E8F046E050E085
:101E60006EE172E08AE392E00E949130892BC1F02A
:101E700086E0EEE1F2E0AAE3B2E001900D928A95ED
:101E8000E1F781E010921D0207C080E0A9CF8091A8
:101E90001D028111DBCF80E02696EBE00C947430BC
:101EA00080E0F0CF8091EB029091F403892B809336
:101EB000720180911902882319F180910E0390918B
:101EC0000F03892B29F00E94B40A81110E947A0A1B
:101ED0008091720190911902892B809372018091F7
:101EE0001A018823E1F18091BF0387FF38C08EE19A
:101EF000E4E7F1E090E08150A0F591110E947A0AA8
:101F000040E250E067EF71E082E791E00E9491309B
:101F1000892B21F180E2E2E7F1E0A7EFB1E0019047
:101F20000D928A95E1F7E091B603F091B7033097EF
:101F3000A9F080911A01882359F08091BF0387FF8F
:101F400007C0809172018093730186E080937201D3
:101F50000280F381E02D82E791E00995089586E003
:101F6000C7CF2191222339F29F5FC5CFCF93DF9353
:101F7000EC01EA85FB85309719F06C857D85099524
:101F80008B810E94990A8C810E94A00A0E94520FA4
:101F900086E0FE0111928A95E9F7DF91CF910895CD
:101FA000CF93DF93EC018D8181FD15C082608D831D
:101FB0008091F4039B81892B8093F4038C810E9490
:101FC000A70A0E94520FE885F985309721F06C85A9
:101FD0007D85CE0109951092B3031092B2038D81D5
:101FE00080FD03C0CE010E94B60FDF91CF9108950E
:101FF00080911801877F8093180182E00E94990ADE
:102000008091180184FF06C08F7E8093180182E0C2
:102010000E94A70A8091180185FF06C08F7D8093DA
:10202000180180E20E94A70A0E94520F089590E0D2
:1020300080E00E94A80590E080E00E949205109246
:10204000F4030E94520F86E0E7E4F2E0DF011D9204
:102050008A95E9F7109241021092400210924202D2
:102060000E94E60608958093F3030E9417100895D6
:102070008091F303982F9670963021F488600E9427
:1020800033100895877FFBCF21E030E001C0220F9D
:102090008A95EAF720958091F30382230E943310FA
:1020A00008959091F601809589238093F601282F59
:1020B000277091F4282F082E000C330B921713066B
:1020C00059F09091C00392FF07C08595859585953D
:1020D0000E9444100E94AD0A08959091C00392FBA3
:1020E000222720F9281769F080FB92F99093C0030A
:1020F0008091BF039091C0030E94A40C82E00E94D3
:102100005110089521E030E001C0220F8A95EAF7CE
:102110008091F303822B0E94331008959091C003A5
:1021200092FF10C098E0899F90011124622B609368
:10213000F6010E9482100E945C059093F501809345
:10214000F40108950E948210089580931A020E945B
:10215000171008951092EB0280911A01E4E7F1E064
:10216000882361F08091BF0387FF08C08EE1DF0103
:102170001D928A95E9F70E941710089586E0F7CF1F
:10218000AAE2B0E0E6ECF0E10C9460308BEE93E074
:102190002091F100DC012D93CD01B3E0833F9B073B
:1021A000B9F78091EC03833009F472C0B8F4813040
:1021B00009F449C0823009F4B3C08091E80083FF7C
:1021C00096C28091EB039091EC039A3008F08FC295
:1021D000E92FF0E0E65FFE4C0C9444308A3009F4BD
:1021E0008EC08B3009F471C0893039F78091EB03D0
:1021F000813219F78091EF039091F003009711F06D
:102200000297D9F68091E800877F8093E80080915B
:10221000E80082FF38C09091F3008091F2000297AD
:1022200031F48091F100813011F0863021F48091F9
:10223000F1008093C6038091E8008B778093E800DB
:102240000E942E04BACF8091EB03813A09F0B5CFFA
:102250008091E800877F8093E8008091EF03909160
:10226000F003892B61F460E287EC93E070E00E9458
:10227000DA048091E8008B778093E8009ECF60E0DD
:1022800090E080E0F3CF8091E9038111C0CF95CF3A
:102290008091EB03813A09F090CF8091EF03909108
:1022A000F003892B09F089CF8091E800877F809324
:1022B000E8008091E80080FFFCCF80911A018093B4
:1022C000F1008091E8008E77B9CF8091EB038132E5
:1022D00009F073CF8091EF039091F003892B09F0FF
:1022E0006CCF8091E800877F8093E8000E942E04E5
:1022F0008091ED0380931A010E94AA105ECF809115
:10230000EB03813209F059CF8091E800877F8093F9
:10231000E8000E942E048091EE038093C5034DCF08
:102320008091EB03813A09F048CF8091E800877FE4
:102330008093E8008091E80080FFFCCF8091C50386
:10234000BECF803899F0823809F0D1C18091EF0377
:102350008F70873008F0CBC18093E9008091EB004B
:1023600085FB882780F91092E90006C08091E70379
:102370009091E803911182609091E800977F90938B
:10238000E8008093F1001092F1008091E8008E77D0
:10239000AAC1882309F498C1823009F0A8C18091AC
:1023A000ED0381119BC18091EF038F702FEF280FF8
:1023B000263008F09CC18093E9002091EB0020FFBB
:1023C0008DC1933031F48091EB0080628093EB00FB
:1023D00085C19091EB0090619093EB0021E030E09B
:1023E00001C0220F8A95EAF72093EA001092EA00D2
:1023F0008091EB008860EACF811179C11091ED03E3
:102400001F778091E3008078812B8093E300809197
:10241000E800877F8093E8000E942E048091E80006
:1024200080FFFCCF8091E30080688093E30082E02E
:10243000111183E08093E9035AC18058823008F07B
:1024400056C12091ED033091EE032C3DE3E03E07B1
:10245000A1F583E08A838AE289834FB7F894DE018D
:10246000139620E03EE051E2E32FF0E05093570056
:10247000E49120FF03C0E295EF703F5FEF708E2F75
:1024800090E0EA30C0F0C7968D939D932F5F243182
:1024900059F74FBF8091E800877F8093E8006AE298
:1024A00070E0CE0101960E94DA048091E8008B77FB
:1024B0008093E8001CC1C096E7CF8091EF03909114
:1024C000F003432F55274330510509F44AC078F5EE
:1024D0004130510509F485C08BE590E0EAE6F6E06D
:1024E0004230510509F003C12091E800277F209375
:1024F000E8002091F1033091F2038217930708F46A
:102500009C0140E02115310509F070C041116EC0F9
:102510008091E80082FDC9CF8091E903882329F2E8
:10252000853019F28091E80083FFF2CFBECF4132AF
:10253000510509F447C04232510509F0D8C0833033
:10254000910508F0D4C0FC01EE0FFF1FEC59FE4FBF
:102550000190F081E02D8F599E4FDC018C9190E02D
:102560001DC0332721303105E9F02115310579F0FF
:1025700022303105F9F02330310509F0B8C0E7ED1C
:10258000F6E0E4918E2F90E0E7EDF6E007C0E5E29B
:10259000F7E0E4918E2F90E0E5E2F7E0009709F490
:1025A000A6C0A2CFE5E1F7E0E4918E2F90E0E5E14F
:1025B000F7E0F4CFE5EFF6E0E4918E2F90E0E5EF61
:1025C000F6E0ECCF8330910508F091C0880F991F99
:1025D000FC01E659FE4F0190F081E02D89E090E08A
:1025E00083CF82E190E0E5ECF6E07ECF8091E903D5
:1025F000882309F45ACF853009F457CF8091E80039
:1026000083FD53CF8091E80082FD82CF8091E80066
:1026100080FF78CF9091F3008091F2002115310571
:1026200019F08830910550F041E0089709F040E03A
:102630008091E8008E778093E80064CF44914093C6
:10264000F1003196215031090196E8CF803809F028
:102650004EC08091E800877F8093E8008091EA0374
:102660008093F10092CE811142C01091ED0312309F
:10267000F0F58091E800877F8093E8001093EA03EB
:102680000E942E04112311F084E005C08091E30024
:1026900087FDFACF81E08093E90342E061EC81E0BD
:1026A0000E944D0442E261EC84E00E944D0442E24B
:1026B00061EC82E00E944D0442E260EC83E00E9403
:1026C0004D048091E90313C08091ED03813079F4CA
:1026D00081E0933009F080E08093E8031092E900F4
:1026E0008091E800877F8093E8000E942E0480910B
:1026F000E80083FF0AC08091E800877F8093E800AC
:102700008091EB0080628093EB00AA96E3E00C944A
:102710007C30ECE0F3E0128E138E8FEA90E0918330
:10272000808325E0248F88E893E1938382838AE085
:1027300090E09583848344E150E05783468348E0EA
:1027400050E051874087938782876EE170E07587FC
:1027500064879787868780E590E0918B808B538B89
:10276000428B48E250E0558B448B42E350E0578B5C
:10277000468B42ED50E0518F408F158E178E168E8E
:1027800091A380A322A30E94B20C0E94AA101092CF
:10279000C0031092BF03E0ECF3E08081846080838B
:1027A0008091BF039091C0030E94A40C0E94CF0CA3
:1027B0000895A4E1B0E0EFEDF3E10C945630A09061
:1027C0000C01B0900D0181E090E090930D01809399
:1027D0000C0186ECC82E82E0D82E00E0760110E0D5
:1027E00015C0F40125913491472D612F802F0E944F
:1027F000650C82E0880E911C7394E7E07E12F1CFA5
:10280000FEE0EF0EF11C1F5F163019F04701712C2E
:10281000E8CF0F5F84E5C80ED11C0630F9F60E94A0
:1028200089131A8219821C821B821E821D821886BD
:102830001F8282ED90E09A87898703E412E04AE0E4
:1028400050E0B801CE0101960E94F030065F1F4FA4
:102850000339E2E01E0799F78E01055F1F4F8AE0FA
:10286000F80111928A95E9F74AE050E063E972E0D5
:10287000C8010E94F0304AE050E06DE972E0C80102
:102880000E94F030B0920D01A0920C016496EDE030
:102890000C94723080E00E948B0C60E086E290E045
:1028A0000E94CC300E94D9130E94550C81E00E94F6
:1028B0008B0C0895CF92DF92EF92FF928FEF9FEFF4
:1028C0004430510508F46AC0FB01C080D180E28029
:1028D000F3800E94AA108091BF03C0FA80F9B7016B
:1028E000A601769567955795479540FB81F9B70105
:1028F000A60122E076956795579547952A95D1F7D9
:1029000040FB82F9B701A60133E0769567955795AC
:1029100047953A95D1F740FB83F9B701A601E4E06A
:102920007695679557954795EA95D1F740FB84F9D9
:10293000B701A601F5E07695679557954795FA9505
:10294000D1F740FB85F9B701A601A6E0769567951A
:1029500057954795AA95D1F740FB86F9B701A6018F
:10296000B7E07695679557954795BA95D1F740FBAF
:1029700087F98093BF038091C003D0FA80F9D1FA20
:10298000CC24C0F8C0FA81F98093C0038091BF03C2
:102990009091C0030E94A40C90E080E0FF90EF9023
:1029A000DF90CF9008950E94AA102FEF84E39CE05F
:1029B000215080409040E1F700C0000088E19AE09B
:1029C0000FB6F894A895809360000FBE90936000B6
:1029D000FFCF882321F00E94990A0E94520F089588
:1029E000882339F09091F403982B9093F4030E947C
:1029F000520F0895882321F00E94A00A0E94520FCE
:102A00000895882321F00E94A70A0E94520F08957A
:102A1000882391F19CEF980F913A40F4682F82E758
:102A200091E00E9468050E94520F089590E2980F6D
:102A3000983050F4877091E001C0990F8A95EAF7B9
:102A4000892F0E94A00AEFCF9BE5980F933028F4BE
:102A500090E080E00E94A805089598E5980F9731CE
:102A600028F490E080E00E9492050895803F20F0D5
:102A70000E940D070E94E6060895CF93DF93EC01B4
:102A80000E940815CE010E947E0B9E01205E310936
:102A90002830310510F0CD2B29F40E94FA14DF9173
:102AA000CF9108950E94E914FACFCF93C82F8823BD
:102AB00009F442C08CEF8C0F813A08F065C0809118
:102AC0001A018823D9F18091BF0387FF37C0EC2F0B
:102AD000E695E695E695F0E0EE58FE4F828190E0AF
:102AE0004C2F477021E030E002C0220F331F4A957F
:102AF000E2F782239323892B61F06C2F82E791E028
:102B00000E9468050E94520F23C08091BF0387FF77
:102B100023C0EC2FE695E695E695F0E0EE58FE4FE3
:102B2000C77021E030E001C0220FCA95EAF7828128
:102B3000822B82830E94520FCF910895E4E7F1E047
:102B40008AE791E02191C217C1F28E179F07D1F752
:102B500080911A018111D9CFA4E7B1E0EFEF80E0B5
:102B60009D91C91739F3EF3F19F4911101C0E82F76
:102B70008F5F8630A9F7EF3FE9F20E2E000CFF0BB6
:102B8000EE58FE4FC283D6CF80E28C0F883048F4D7
:102B9000C77081E001C0880FCA95EAF70E94A70AB2
:102BA000C9CFEBE5EC0FE33040F4F0E0ED5DFE4F14
:102BB000808190E00E94A805BFCFE8E5EC0FE731E7
:102BC00050F4F0E0EE0FFF1FEA5DFE4F808191812F
:102BD0000E949205B1CFC03F08F4AECF8C2F0E9467
:102BE00028080E94E606A8CF1F93CF93DF93182FE3
:102BF000C0912C03D0912D03893321F0C0912A0379
:102C0000D0912B03812F0E945515209739F4812FE5
:102C10000E940815DF91CF911F9108958FE99FE0E1
:102C20000197F1F700C000002197EFCFB0E0A0E0DE
:102C3000ECE1F6E10C945C30E82FF0E0E651FA4F5D
:102C4000D490282F26952695269530E0F901E65256
:102C5000FA4F0491877010E0082E02C01595079571
:102C60000A94E2F701701127F901E653FA4FE49054
:102C7000F12C082E02C0F594E7940A94E2F791E053
:102C8000E922FF24F901E654FA4FC491D0E002C0D2
:102C9000D595C7958A95E2F7C170DD270115110515
:102CA00019F081EE0E945515E114F10419F086EE39
:102CB0000E9455158D2D0E94F415E114F10419F0B0
:102CC00086EE0E9408150115110519F081EE0E948B
:102CD0000815CD2B19F08CE20E94F415CDB7DEB7A4
:102CE000E7E00C9478301F93CF93DF93EC011AE068
:102CF0008881882309F43EC08130C9F599818A8191
:102D0000913029F422960E94F4152196F1CF923049
:102D100021F422960E945515F8CF933021F4229683
:102D20000E940815F2CF943011F02196EECF229632
:102D300030E020E0AE014F5F5F4F8053990B8A3047
:102D4000910550F02150310900F38FE99FE0019780
:102D5000F1F700C00000F6CF129FB001139F700D75
:102D600011249C01260F371F8981EA01E3CF0E94BD
:102D70001616CBCFDF91CF911F910895CF93DF939C
:102D8000EC010E947E0B9E01205E31092830310546
:102D900010F0209741F40E9401158C2F0E945515C8
:102DA000DF91CF9108950E94F014F7CF662329F0A8
:102DB0002091F40322602093F4039C0130562115E6
:102DC00040E2340720F0305E2115304108F49927A5
:102DD0000E94BE160895B0E0A0E0E1EFF6E10C9489
:102DE0005C307C018B01D42E8091180182FF8CC055
:102DF000C0913203D0913303CE15DF0521F0E114E9
:102E0000F10409F081C0809118018B7F8093180133
:102E100081FD73C08091300390913103A801481B5C
:102E2000590B81E020911601309117014217530789
:102E300008F480E08170F82E80911801F0FA81F991
:102E400080931801FE0183E0F695E7958A95E1F7F6
:102E5000EE71FF27E451FD4F20813181AE014F70AB
:102E6000552781E090E002C0880F991F4A95E2F74C
:102E7000FF2009F444C0822B932B9183808380919F
:102E8000EB0281FF08C080911801806180931801D6
:102E900082E00E94A00A8091EB0285FF08C0809129
:102EA000180180628093180180E20E94A00A6F2DB1
:102EB000CE010E94D616DD2031F08091270385FFD8
:102EC00002C086FF3BC080912A0390912B030E9491
:102ED000440C80913203909133039C0130562115AC
:102EE00040E2340720F0305E2115304108F4992784
:102EF0000E943D150E94F80F1DC081E09BCF809578
:102F0000909582239323B9CFC70199279701305613
:102F1000211540E2340728F0305E2115304108F0D9
:102F2000C7010E943D1580913203909133038E15A5
:102F30009F0501F31093310300933003CDB7DEB743
:102F4000E7E00C9478300F931F93CF93DF938C01BD
:102F5000EB010E94BE16209741F4C8010E943D1566
:102F6000DF91CF911F910F9108958FE99FE0019715
:102F7000F1F700C000002197EECF68EE7EEF90E001
:102F800080E00E94EA3060E082E090E00E94CC3075
:102F900060E083E090E00E94CC3010921A0260E082
:102FA00084E090E00E94CC3064E082E290E00E94F5
:102FB000CC3060E085E090E00E94CC3060E086E0BC
:102FC00090E00E94CC306FEF87E090E00E94CC3020
:102FD00040E050E0BA0188E090E00E94DE3060E01E
:102FE0008DE090E00E94CC3040E050E0BA0188E1F2
:102FF00090E00E94DE3060E087E190E00E94CC30FB
:1030000040E050E0BA018CE190E00E94DE3070E0D8
:1030100060E080E290E00E94EA3040E050E0BA01D7
:1030200088E190E00E94DE3080E00E948B0C0E94DC
:103030004A1440E050E0BA018FE090E00E94DE3098
:1030400040E050E0BA0183E190E00E94DE30089554
:10305000A4E0B0E0EEE2F8E10C9457307C01DC0132
:1030600013964D915C91149711966C9111978C91D8
:103070000E94CB058111EEC061E0C7010E94BD0D29
:103080008C01F70182818823E1F08091B203909155
:10309000B3030097B1F00817190799F0FEE08F9F6E
:1030A000C0011124FC01EC59FD4F208124602083D4
:1030B000815A9D4FDC010D931C930E94D00F1092FA
:1030C000F403F7018281882311F40C94BA2098014B
:1030D00022513F452031310508F0BDC78FEF93E005
:1030E0000E94BE308111A6C0EEEEDE2ED00E07EAA1
:1030F00012E0D11036C019821A821B821C829924D8
:103100009A9468012FEFC21AD20AC8010E94BE30F9
:1031100089831A82882309F48DC0813009F07FC029
:10312000580132E0A30EB11CC6010E94BE30C82E69
:103130008A83882309F47EC0C5010E94BE30D82E40
:103140008FEF8C0D8330D8F4580143E0A40EB11CEE
:10315000DB82DD2021F0CE0101960E9473168501ED
:10316000D0CF0115F4E01F0709F464C0C8010E9424
:10317000BE30811101C0DA940F5F1F4FBACF8BEFC1
:103180008C0D833030F5C8010396DB825C01DD20B5
:1031900031F3580154E0A50EB11C0E94BE308C835F
:1031A0008823E9F28B819C818130AFEF9A0710F080
:1031B000982F8827B6E0CB1631F0E7E0CE1631F035
:1031C0000E944B27CCCF0E942527C9CF0E94AC2656
:1031D000C6CFF4E0CF12C3CF580124E0A20EB11C39
:1031E000C80103960E94BE30DD2021F1882311F131
:1031F0008150990B989E9001999E300D11244D2D70
:103200004150550BCA01820F931F019708F4A7CFB5
:10321000AFE9BFE01197F1F700C00000F6CFCE0193
:1032200001960E94731656019ACF81E00E94821087
:103230000E9438108091F601877061F0D7011296D4
:103240008C91882339F08091C00382FF03C082E013
:103250000E9451102496ECE00C94733081E00E949F
:103260004410E6CF82E0E2CF823009F035C780918A
:10327000590290915A02892B09F42EC72EE02C9DF9
:10328000C0012D9D900D1124FC01EC59FD4F2081B2
:103290002E7F2083815A9D4F0E94D00F1DC72FEF94
:1032A000C216D10409F008F417C7D70112968C9101
:1032B000882391F0033EBCE51B0709F422C108F006
:1032C0000DC1013EFCE51F0709F416C181E0023E75
:1032D0002CE5120709F40DC117FF71C0D701129632
:1032E0008C91882309F46BC00E94BE05869581707D
:1032F000809394010E94BE05817080939301809118
:10330000E702813039F480919401882319F089E330
:103310000E94F4158091EB02809392011092EB02CF
:103320001092F4038091E702823009F419C108F089
:10333000EEC0882309F407C1813009F408C18FE386
:103340009CE90197F1F700C000005801E894B7F834
:103350005CE0C52ED12C6AE0862E912CC5010C2C88
:1033600002C0969587950A94E2F78F709091E702D4
:10337000923009F010C18A3008F00BC190E0099634
:10338000B4010E943030875A0E94F41594E0C91AA3
:10339000D108ACEFCA16AFEFDA0601F78091E70269
:1033A000823009F420C108F000C1882309F40BC160
:1033B000813009F40CC1809192018093EB028091DD
:1033C000270380FF38C00E945C056C01F7018281F1
:1033D000882309F421C18091180182FF08C02FE2DF
:1033E00032E040E0B60190E080E00E94EB160B3145
:1033F000FCE51F0709F402C10C312CE5120709F4A2
:1034000003C190911801892F8E7F90FF81600A314E
:103410003CE5130709F4FBC0C8019056811540E252
:10342000940728F0905E8115904108F003C1109236
:10343000330310923203D70112968C91882309F43A
:103440000BC20330BDE51B0708F0EAC10A3FECE5FB
:103450001E0730F4C80182509C45449708F0ECC127
:103460000E94E40D9093C0038093BF0302314CE5AA
:10347000140709F422C308F072C209308CE518075A
:1034800009F4F9C208F03CC20530ACE51A0709F4AA
:10349000E6C208F023C20330ECE51E0709F4D7C2E8
:1034A00008F0D9C28091BF03816002302CE5120779
:1034B00009F452C28091BF039091C0030E94A40CF2
:1034C0000E94AA10B7CE902F812F4FC6F60185819A
:1034D00081FFEBCEC6010E94B60FE7CE053E3CE56C
:1034E000130799F080F085E0003B5DE5150709F0D2
:1034F000F3CE8093E70202C01092E7020E944E0CC6
:10350000EBCE82E0F6CF83E0F4CF84E0F2CF8430DC
:10351000D9F1853009F013CF60912A0370912B0304
:103520008BE191E00E94A31760912A0370912B0315
:1035300085E290E00E94A31760912A0370912B030B
:1035400088E290E00AC082EE0E945515F8CE6091A4
:103550002A0370912B0388E193E00E94A317EFCE1A
:1035600080919301811103C083E50E94F41582EEDE
:103570000E945515EFE3FCE93197F1F700C0000018
:1035800087E50E94F415DBCE86EE0E94F41588E1F3
:10359000F8CF8650F9CE96EF980F963020F0805DE8
:1035A0000E941616F3CE895AFBCF843029F185305C
:1035B00009F001CF60912A0370912B0388E290E01B
:1035C0000E94A317F8CE82EE0E940815F4CE8CE27A
:1035D0000E94F41580919401882309F4ECCE89E3CC
:1035E0000E94F415E8CE82EE0E94081580919301A6
:1035F0008111E1CE83E5F4CF88E2F2CF809118010A
:1036000081608093180108CF809118018E7F80938C
:1036100018010E94F80F00CF809118018F7E013EA3
:10362000110531F0053E1105C1F4809118018F7D1F
:10363000809318018091180180FFFDCEF7018281EF
:103640000832110528F50E31110508F072C004305A
:10365000110580F58111EBCEEECEC8019056811593
:10366000A0E29A0720F0905E8115904118F78091B2
:10367000180182FFE0CE8091290381FDDCCE2FE28C
:1036800032E040E0B60190E080E00E94EB16D3CE3D
:103690000933110558F40D32110518F40B321105D8
:1036A000C9F69091270392FDD5CF08C004361105C5
:1036B000C1F3D0CF9091270394FDCCCF882309F498
:1036C000A8C0809119029091EB02892B8D7FB1F1F6
:1036D00010923303109232038091270381FD2EC094
:1036E000F80143E0F695E7954A95E1F7EE71FF277B
:1036F000E451FD4F98012F70332781E090E002C024
:10370000880F991F2A95E2F7809590952081318145
:10371000822393239183808360E0C8010E94D616A0
:10372000809119028D7F0E94850A82E00E945110CB
:1037300081CD9091270393FD8DCFC0CF88E0F70115
:10374000AFE2B2E001900D928A95E1F7109231025A
:10375000109233021092320280913203909133031F
:1037600008171907D1F52091270325FF36C030919E
:10377000180131FF02C026FF30C020913003309184
:1037800031035601A21AB30AB7010E94370EA816D8
:10379000B90618F58091EB0281FF08C080911801ED
:1037A00080618093180182E00E94A00A8091EB0260
:1037B00085FF08C08091180180628093180180E223
:1037C0000E94A00A60911801669561708091320391
:1037D000909133030E94D6162DCD809119029091BD
:1037E000EB02982B2091180191FB21F920931801ED
:1037F0008D7F0E94850A1093330300933203D09289
:103800003103C092300380911801846080931801C5
:103810008CCF970140E0B601C8010E94EB160ACD9B
:10382000053AFDE51F0709F41BCE08F050C001362C
:103830003DE5130709F414CE0A354DE5140709F4E4
:103840008BC108F064C101158CE5180709F46AC141
:103850000E3D1C4509F473C1F701868197810097DD
:1038600009F47EC10E94EC08182F092FF701D280BD
:10387000C580C2943FE0C3228091F6018770C1F0F9
:10388000AD2CDD20B1F0892F807F803421F080E2E3
:10389000810F883068F08091C00382FF09C082E008
:1038A0000E9451108091F6018770AA24A39481117F
:1038B000A12C902E92942FE09222FBE0F91508F4AF
:1038C000DCC1E92DF0E0EC5EFE4C0C944430C80104
:1038D0008D5A9D45039708F0AFCFC2CD8091BF03AD
:1038E000806207303CE51307B9F18091BF03806126
:1038F00008304CE5140780F18091BF0380642CC030
:103900000D305CE5150709F4C0C090F48091BF0349
:103910008E7F0B309CE51907F9F08091BF038C6016
:103920000C30ACE51A07C0F08091BF038D7F14C046
:103930000F30BCE51B0709F4B8C008F4AAC0003179
:10394000FCE51F0709F4B5C08091BF038F7B0131EF
:103950002CE5120709F0AECD8093BF03ABCD0F3F2E
:103960003CE5130709F4B3C0A8F50A3F5CE5150769
:1039700009F479C0C0F404319CE5190709F4B5C015
:1039800008F4A1C00531BCE51B0709F093CD809177
:10399000BF0382FB992790F921E0922790FB82F9DF
:1039A00090FB83F9D9CF0C3FECE51E0709F475C0F5
:1039B00008F45DC00D3F2CE5120709F472C0809138
:1039C000C00383600E3F3CE5130709F073CD80937D
:1039D000C00370CD01364DE5140709F491C090F491
:1039E00001308DE5180709F489C008F474C060E05F
:1039F0000230ADE51A0709F05DCD8EE090E00E943F
:103A0000CC3058CD0D3ABDE51B07E9F060F490913C
:103A1000BF03892F8E7F90FF8160053AFDE51F0768
:103A200009F49ACF47CD0E3A2DE5120751F10F3A1E
:103A30003DE5130709F03ECD9091C003892F877FA4
:103A400093FF8860C4CF8091C0038860C0CF80910D
:103A5000BF03826081CF8091BF0384607DCF80915E
:103A6000BF03886079CF8091C0038160B0CF80911F
:103A7000C0038260ACCF0E94AA108091BF0380680F
:103A80006BCF8091C003877FA2CF8091BF038B7FD4
:103A900063CF8091BF03877F5FCF8091C0038E7F0C
:103AA00096CF8091C0038D7F92CF8091BF038F7E90
:103AB00053CF8091BF038F7D4FCF0E94AA1080917A
:103AC000BF038F7749CF8091BF03837F45CF80911C
:103AD000C0038C7F7CCF8091C003982F909591700C
:103AE0008E7F892B90FB81F972CF0E94AA10909152
:103AF000BF03892F97FB87F980582ECF61E07DCFD8
:103B00009091BF03892F8F7E94FF806125CF0C3564
:103B1000ADE51A07B9F010F1073A1D4509F09CCE42
:103B20000E94D3140E94AA10FFEF24E33CE0F1505E
:103B300020403040E1F700C000000E943C050E9498
:103B4000BD17EECF8091C00382FB882780F991E0FA
:103B500089270E946D1080CE81E0FBCF80E0F9CFF5
:103B6000828100811181882369F0C8010E94410D82
:103B7000D82E682FC8010E942C0BB8018D2D0E94F1
:103B8000240D70CEC8010E94F80AD82EF6CF202F3F
:103B90002F70B22E802F807F19F0B29490EFB9224F
:103BA000DD20A9F0BB2059F080E2810F883010F0B1
:103BB000111107C08B2D0E94A70A0E94520F812F5E
:103BC0005AC08091F403B82AB092F403F6CF812F43
:103BD0000E940815BB2009F450C080E2810F883094
:103BE00010F0111104C08B2D0E94A00A03C08B2D70
:103BF0000E94990A0E94520F40C0302F3F70B32E8E
:103C0000802F807F803219F0B29480EFB822112388
:103C100021F1113009F4AEC0DD2009F4B7C0CC2089
:103C200009F47FC020E0D7014C9111965C91119767
:103C300012966C91129713967C91139714968C910F
:103C40000E949A0D8091290381FDB9CFF7018581EA
:103C500080FFB5CF8F70858364C08091C00382FDE3
:103C600040C0DD20C1F1BB2029F08B2D0E94A70AA6
:103C70000E94520F80E00E945515A92DA850BB0B41
:103C8000149710F40E94BE05812F902F0E94630BA1
:103C90008111C2C11092970110929601AA20B1F031
:103CA0008091F60180FD12C0D70112961C92859575
:103CB000859585950E948210C7010E9428188091E1
:103CC000F6018595859585950E94441060E0C701B1
:103CD0000E94BD0DBFCA80E00E940815BB2069F29A
:103CE00082CFDD2011F1C11004C0809119028B290F
:103CF00019C041E0C41206C0809119028B290E94AC
:103D0000850ABBCF80912803823078F3C812EDCFAB
:103D10000E947A0A909195018B2D892B89138093AB
:103D200095018B2D0E940115A8CFC11003C00E94E0
:103D30007A0A17C08091280351E0C51216C082305C
:103D400008F49BCF8091EB028B2109F496CF0E945F
:103D50007A0A909195018B2D809589238913809300
:103D600095018B2D0E94FA1488CF823000F3C8127F
:103D7000DECF83CF80912E03DD2021F08C1508F457
:103D80007CCFCFCFC81608F078CFEBCFCC2049F34B
:103D900080912C0390912D03193321F080912A03F7
:103DA00090912B030E94440C812F0E94081565CF2F
:103DB000802F86958695837069F0813009F05DCFFC
:103DC000812F902F9370D11002C090E080E00E946C
:103DD000920553CF812F902F9370D11002C090E0A5
:103DE00080E00E94A80549CF812FDD2029F00E94A4
:103DF00028080E94E60641CF0E940D07FACF802FC7
:103E0000837091F5D11039CF412F42954695477077
:103E1000440F440F812F8F70042E01C0880F0A9425
:103E2000EAF7212F207114FF07C02FE030E001C016
:103E3000220F4A95EAF72095302F36953695337044
:103E4000323069F050F440911A02313029F0822B5F
:103E500084230E94A51011CF842B822BFACF282B0C
:103E600080911A028227F5CF8695DD2011F0802FF0
:103E70008170882309F401CF412F42954695477000
:103E8000440F440F812F8F70042E01C0880F0A94B5
:103E9000EAF7212F207114FF07C02FE030E001C0A6
:103EA000220F4A95EAF72095302F369536953370D4
:103EB000323069F050F44091F303313029F0822B15
:103EC00084230E943310D9CE842B822BFACF282B47
:103ED0008091F3038227F5CFF02FFF70BF2EDD20F6
:103EE00029F08F2F0E948210812F1CCF812F0E94DA
:103EF000FA148B2D0E944410C0CE123F89F160F459
:103F0000103FB9F0113F81F0DD2009F480C0C110ED
:103F100056CE802F8F7128C0133F49F1143FA1F76F
:103F20008091C00382FD2FC0802F8F71DD2011F39F
:103F30001BC080912E03DD2079F0C81608F09DCEBD
:103F4000202F2F7181E090E001C0880F2A95EAF7B9
:103F50009091F3038927B5CF8C1508F48ECEF0CF5E
:103F6000802F8F71D110C6CF0E94821086CE80E044
:103F7000DD2009F4A6CF81E0902F9F7101C0880F4A
:103F80009A95EAF79ECF80912803823040F1DD2098
:103F9000D1F09091F6019770943041F40E94AD0AEF
:103FA000802F8F710E944410A12C67CEC816E0F7B5
:103FB000202F2F71B22E822F0E94821063E08B2D52
:103FC0000E948E10F1CFC81630F00E94AD0A64E056
:103FD000802F8F71F5CF81E00E945110E5CFDD2059
:103FE00059F0302F3F71B32E832F0E94821063E06F
:103FF0008B2D0E948E1041CE81E00E94511041E035
:104000004C1508F03ACE82E00E94511036CEC11015
:10401000BFCE802F8F716ECFDD2019F0C1103ACE48
:104020003DCEC11037CE20E0F70140815181628141
:10403000738184810E949A0D8091290383FF2ACE87
:104040008091960190919701029709F023CE812FDC
:104050000E94F4151FCE0031BFE51B0709F4E5C827
:104060000131EFE51E0709F4FDC86801E7E5DE1A36
:10407000811115C9FFEFCF16D10411F008F015C951
:1040800065E572E08C2D0E94230E892B29F58EE0C8
:104090008C9DF0018D9DF00D1124E15AFD4F828120
:1040A000813009F0E1C88091550290915602892B28
:1040B00099F08091570290915802892B69F0809174
:1040C000590290915A0220915B0230915C02822B3E
:1040D000932B892B09F4D2C85801BB243EE0039FDF
:1040E000F0011124AF01415A5D4F6A01D7011296C8
:1040F0008C91EC59FD4F908180FB90F9908388233F
:1041000009F4E4C90E945C0590932E0280932D026D
:10411000D60112968C9112978F5F12968C931297FC
:104120008091F4039091EB02892B13968C93139753
:104130008091190214968C9314971696ED91FC9128
:104140001797309729F01C966D917C91C6010995BF
:104150008EE08A9DF0018B9DF00D1124E15AFD4FF8
:10416000858181FFB0C990E080E09093B203809395
:10417000B3039BC80031FFE51F0709F46FC8013185
:104180002FE5120709F071CF82E069C8B0E0A0E026
:10419000ECECF0E20C945B308091AF01807F31F465
:1041A0008091AC01C091F301811107C0CDB7DEB79A
:1041B000E8E00C9477302196C7708091B2018C179B
:1041C000A9F3F090AA01E090AB01C090AD01D090AE
:1041D000AE01A6016E2D8F2D0E94CB05D0E081117E
:1041E000EACF8E0183E0000F111F8A95E1F7F801F5
:1041F000ED54FE4F81818E11DECF80818F11DBCF98
:1042000082818111D8CFE380F480EC18FD0860E052
:104210008AEA91E00E94BD0D6AEA71E00E94370EC1
:10422000E816F90640F68091AF018F7080618093A7
:10423000AF01F801E854FE4F80818F708061808368
:104240008AEA91E00E9428180E94EE0AAFCFA5E109
:10425000B0E0EDE2F1E20C9454308C0185E0F8011D
:10426000DE01519601900D928A95E1F7D8015C909C
:1042700011966C9011971296EC9012971396CD9020
:10428000DC9060E08AEA91E00E94BD0D8AEAA82EE7
:1042900081E0B82E8090AD019090AE01A4016091B4
:1042A000AB018091AA010E94CB058111A8C1F090B9
:1042B000AC01F601E819F9094F0160E0FF2009F4AB
:1042C0004BC1C5010E94BD0DB5010E94370E709013
:1042D000AF018816990608F0F2C04091AD015091E7
:1042E000AE01B090AA01A090AB01872D807F6A2D0E
:1042F00009F08CC08B2D0E94CB05FE2C811127C0AC
:10430000D80111968C9111978A1121C08C918B1133
:104310001EC02091B0013091B10116968D919C91F3
:1043200028173907A1F4E11012C0872D8F70806122
:104330008093AF018AEA91E00E9428188091AF0132
:10434000F80185838F2D6596EFE00C947030A601FF
:10435000662D852D0E94CB05D82E81E08E25D110AB
:1043600080E080FF18C04E2D662D852D0E94CE0A5C
:10437000882389F08091290380FF0DC08AEA91E0AB
:104380000E94281888E0EAEAF1E0DF011D928A9590
:10439000E9F7F12CD7CF81E08E25D11080E0B82F3E
:1043A000B170CB2E80FF29C04E2D662D852D0E9429
:1043B000CE0AD82E811121C0598A6A8A89899A89A0
:1043C0000E94700D292F22952F70223050F024303A
:1043D00078F49F7051F0F8019581907F31F4FD2CB5
:1043E000B1CF9F7011F08823D1F3805E8830B8F38D
:1043F000C8010E942818DC2CF2CFEE2009F4A2CFCD
:104400008091AF0181608093AF01C3CF8B2D0E945B
:10441000CB05811124C0D80111968C9111978A1176
:104420001EC08C918B111BC02091B0013091B10145
:1044300016968D919C9117972817390781F4E110F2
:104440000EC015967C92C8010E94281888E0F801D9
:10445000AAEAB1E001900D928A95E1F773CFC80105
:104460000E947D0D882339F1EE2029F18091AF0162
:104470008032A0F02091AA013091AB013A872987C0
:104480001B86DD86CC868E878091B0019091B1012C
:10449000988B8F87CE0109960E94281888E0F80132
:1044A000AAEAB1E001900D928A95E1F70E94C62038
:1044B000FF24F39447CFC8010E942818F9CF872D15
:1044C000807F09F45BCF9090AA018090AB0140916E
:1044D000AD015091AE01682D892D0E94CB0581114F
:1044E0001CC0F8018181881118C08081891115C014
:1044F0002091B0013091B101868197812817390749
:1045000061F4E1100AC07582C8010E94281888E091
:10451000D5011D928A95E9F715CFC8010E947D0D3E
:10452000882349F2EE2039F28091AF01803208F4FD
:10453000B5CF2091AA013091AB013A8329831B8228
:10454000DD82CC828E838091B0019091B1019887F9
:104550008F83CE010196A0CF8AEA91E00E94BD0D23
:104560006AEA71E00E94370E8816990680F6FE2CE2
:10457000EE2009F4A0CFE090AA01D090AB014091C9
:10458000AD015091AE016D2D8E2D0E94CB05811194
:1045900028C0F80181818D1124C080818E1121C035
:1045A0002091B0013091B101868197812817390798
:1045B000C1F48091290382FD49CF9091AF0190FD14
:1045C00045CF907F09F442CF8091AF018583903F22
:1045D00009F439CF982F907F905F8F70892B858356
:1045E00032CFC8010E947D0D811158CF8091AF015B
:1045F00081608093AF01C8010E942818A3CEEE20ED
:1046000009F459CFC8010E947D0DF82E882309F4C2
:1046100052CF88E0F801AAEAB1E001900D928A95A4
:10462000E1F78091AA019091AB010E94700D0E9468
:10463000C62088CEA0E1B0E0E0E2F3E20C94613065
:1046400029873A874B875C876D877E878F87988B12
:10465000CE0109960E94272181112FC088E0FE011A
:104660003996DE01119601900D928A95E1F74C85FD
:104670005D856A8589850E94CB0581111EC0A09148
:10468000B201B0E0CD010196877099272091F30126
:1046900028171906E1F093E0AA0FBB1F9A95E1F7DE
:1046A000AD54BE4F98E0FE01319601900D929A955F
:1046B000E1F78093B2010E94EE0A8091F30190919C
:1046C000B201891312C06096E2E00C947D300E9422
:1046D000AA101092B2011092F30188E0EAEAF1E028
:1046E000DF011D928A95E9F7E8CFB8E08B9FC00102
:1046F00011248D549E4F0E942721882321F38091FD
:10470000F30190E00196877099278093F301D5CF4C
:10471000EF92FF920F931F93CF93DF938091370314
:10472000882361F0C09136038CE0F82E8091370326
:10473000C81748F01092370310923603CDB7DEB792
:10474000E6E00C947930EE24E394EC0EE09236032C
:104750000C2F10E0CF9DE0011124C85CDC4F4B8191
:104760005C81698188810E94CB0581111DC08E8189
:104770009F81892B21F488859985019651F42881A0
:1047800039814A815B816C817D818E819F810E940C
:104790001A23F09EF001F19EF00D1124E85CFC4F0D
:1047A000148213821092F403CE2DC0CF1092B10365
:1047B0001092B003109219018091AF038093AE0361
:1047C0000E9404060E9488230895B0E0A0E0EBEE6A
:1047D000F3E20C945230C091AE0397E0892E01E0D1
:1047E00010E02CE0322E3EEF932E4424439480912F
:1047F000AF038C1309C00E9488230E940406CDB722
:10480000DEB7E1E10C946E30D0E0FE01EE0FFF1F49
:10481000EA55FC4F80819181889ED001899EB00D20
:104820001124A856BC4F14962C911497211158C0EE
:1048300050903703E8E3F3E030E020E0712C5D01B5
:10484000251508F04BC0E284F384D501CD90DC90AF
:104850006FEF7FEF612C462D50E0DA01AA0FBB1FEE
:10486000AC0DBD1D0D90BC91A02D109731F0EA1636
:10487000FB0609F4BA016394EECF6F3F7607A9F106
:10488000D80102C0AA0FBB1F6A95E2F77A2AB801C5
:10489000062C02C0660F771F0A94E2F7AB01415065
:1048A000510974161506F9F4329EF001339EF00D8D
:1048B0001124E85CFC4F889ED001899EB00D112424
:1048C000A856BC4F12962D913C911397378326839F
:1048D000908291829187808715964C920E94D6058E
:1048E0002196C37084CF148213822F5F3F4F3C9672
:1048F000A7CFA9E1B0E0EFE7F4E20C945130942F98
:10490000498B252F5A8B6B8B7C8B8D8B4C895D89CA
:10491000622F892F0E94CB05811109C080919601D9
:1049200090919701019690939701809396018B89BE
:1049300081111092F4031D861E861F86188A85E059
:10494000FE017196DE01199601900D928A95E1F7AC
:104950008091C00382FF1EC080910E0390910F03CF
:10496000892BC1F00E945C052091F4013091F50182
:10497000821B930B20910E0330910F038217930734
:1049800020F08091F60182FFE3C10E94B40A8111F8
:104990000E947A0A4C855D856A8589850E94CB05CF
:1049A000811111C061E0CE0109960E94BD0D6C011C
:1049B0008B8527EFC2162CE5D20681F4882321F1DE
:1049C00081E08093190129853A854B855C856D8549
:1049D0007E858F8598890E941A23C7C038EFC31639
:1049E0003CE5D30629F4882379F00E94D623EBCF47
:1049F00049EFC4164CE5D40639F4882329F0809198
:104A000019018111F2CFDCCF08E913E0512C312CD0
:104A1000212C88248394912C3EEF432EF801408171
:104A20005181AA24AA94BA2C20E0822F90E0FC01A4
:104A3000EE0FFF1FE40FF51F608171816115710595
:104A400051F0C616D70609F45C012F5FEECF222481
:104A50002394312CE3CFF12CFFEFAF16BF0609F4FE
:104A600049C0F8014481F09019018F2D411180E077
:104A7000F82FF170FF2EF801E58086819B85992340
:104A800009F4F5C0FF2009F4F2C060902203709091
:104A90002303E11013C0A4010A2C01C0440F0A949F
:104AA000EAF7842B86838091340390913503861531
:104AB000970520F47092350360923403C40102C05C
:104AC000880F991F2A95E2F70197F8012681281788
:104AD000190681F48091B0039091B103009709F415
:104AE00048C00E944D056816790608F042C021E0D2
:104AF000F80124835F28095F1F4FF1E02F1631046E
:104B000009F0A5CF8B85882309F40DC1552009F440
:104B10000AC10E945C059093B1038093B003809119
:104B20003703883010F591E0980F9093370398E0A1
:104B3000FE013996DE01119601900D929A95E1F7EA
:104B40002CE0829FC0011124885C9C4F28E0FE016C
:104B50003196DC0101900D922A95E1F72FEF3FEF9E
:104B6000FC0131872087D386C2866996E2E10C94E6
:104B70006D308091AE035091AF03982FF0E0E0E0EC
:104B8000851314C09093AE03E017F10709F4B2CF78
:104B900090E0FC01EE0FFF1FEA55FC4F31822082AE
:104BA0000196837099278093AF03A4CF682E712C50
:104BB000F301EE0FFF1FEA55FC4F2081318147E0E2
:104BC000429FD001439FB00D1124A856BC4F6D9158
:104BD0007C911197798F688F40E020E030E0E32FDF
:104BE000F0E0EE0FFF1F688D798DE60FF71FA080B4
:104BF000B180A114B104E1F0F8010190F081E02D41
:104C0000FF8BEE8B20E005C0A616B70609F44F2DEA
:104C10002F5FE22FF0E0EE0FFF1F6E897F89E60F16
:104C2000F71F608171816115710571F73F5FD7CF03
:104C30004423D1F0F801231708F0FD0121E024837B
:104C40000E171F0721F49093AE03F42E53CF981341
:104C500005C0AE17BF0711F49F5F937093012F5FDC
:104C60003F4F822F83708CCFF0E0E0E0F7CF90E0F1
:104C7000E11020C0B40102C0660F771F2A95E2F749
:104C80009B01215031098217930731F4442309F421
:104C900048C0C1010E94D605C4010A2C01C0880F7A
:104CA0000A94EAF7982F9095F801868189238683E4
:104CB000FE2C20CF9C010A2C02C0359527950A9422
:104CC000E2F7A90141705527BC01615071098623A3
:104CD0009723892B11F5452B01F1F80182819381EE
:104CE000892BC1F01B821C821D821E8249824A824E
:104CF0000E945C058160582F9D838C83F80182811E
:104D000093818F83988729813A814B816D817E8140
:104D10000E941A23F8011582BFCFF22FF170EF2EF7
:104D2000BBCFEF2CB9CF9091AE038091AF03981712
:104D300031F00E94E523552009F445CE16CF0E949C
:104D400088231092B1031092B0030E940406F3CF9F
:104D500082E00E94511019CEA5E0B0E0E2EBF6E24D
:104D60000C9461309093E4028093E302811520E279
:104D7000920730F40E943D152596E2E00C947D30B8
:104D800080EF89838A831B820E945C058160782F73
:104D90009D838C8349815A816B818D810E94792406
:104DA000EBCF0F931F93CF93DF938C01EB0165E55E
:104DB00072E08C2F0E94230E892BA1F480912A038C
:104DC00090912B030E94440CDD27C35BDD4F88814B
:104DD000F801128218828330F1F048F4813059F0E2
:104DE000823081F0DF91CF911F910F91089584302F
:104DF000B9F08530B9F7809155029091560200972D
:104E000089F306C08091570290915802009799F358
:104E10000E94AC26E7CF8091590290915A02F6CFBA
:104E200080915B0290915C02009791F7209155026E
:104E30003091560280915702909158022115310508
:104E4000F1F2009729F7C901E3CFA5E0B0E0EBE26A
:104E5000F7E20C9461309093E4028093E3028115B1
:104E600020E2920730F40E94BE162596E2E00C94F0
:104E70007D3080EF89838A8381E08B830E945C058B
:104E80008160782F9D838C8349815A816B818D81CC
:104E90000E947924EACFCF93DF93EC010E9425276B
:104EA00080912A0390912B030E94440CCE010E9412
:104EB000AC26DF91CF9108950F931F93CF93DF938B
:104EC0008C01862F65E572E00E94230E892BB1F4D8
:104ED000C0915502D0915602209781F0F80182814D
:104EE000833051F4CE010E944B27CE010E944B2704
:104EF000CE010E944B2702C08430D0F7DF91CF91C2
:104F00001F910F9108950F931F93CF93DF938C01FF
:104F1000EB0165E572E08C2F0E94230E892B09F0CE
:104F20005CC0FE01FF27D80112968C911297E35BBB
:104F3000FD4F8130B9F415969C9192FF02C0808399
:104F40000AC090FFFCCF82E080838091570290914D
:104F500058020097B9F4809155029091560200973B
:104F6000E1F110C08230B9F515968C9182FD28C010
:104F700080FD0BC083E080838091590290915A029A
:104F8000009701F10E94252728C084E0808380914A
:104F90005B0290915C020097A9F780915502909175
:104FA00056020097F9F00E944B278091570290918A
:104FB0005802009739F78091550290915602E2CF3E
:104FC00085E080838091550290915602009729F0E8
:104FD0000E944B27F0CF86E08083DF91CF911F9115
:104FE0000F9108958091570290915802B8CF1F9267
:104FF0000F920FB60F9211242F933F934F935F930D
:105000006F937F938F939F93AF93BF93CF93DF93D0
:10501000EF93FF93D091E900DF708091EC00C82FEF
:10502000C17080FDC0E81092E9008091F000877F98
:105030008093F00078940E94C0101092E900809153
:10504000F00088608093F000CD2BCF70C093E90012
:10505000FF91EF91DF91CF91BF91AF919F918F9190
:105060007F916F915F914F913F912F910F900FBE64
:105070000F901F9018951F920F920FB60F92112448
:105080002F933F934F935F936F937F938F939F9350
:10509000AF93BF93EF93FF938091E10082FF09C02C
:1050A0008091E20082FF05C08091E1008B7F8093B8
:1050B000E1008091DA0080FF24C08091D80080FF59
:1050C00020C08091DA008E7F8093DA008091D90031
:1050D00080FF9DC080E189BD82E189BD09B400FEE9
:1050E000FDCF81E08093E9038091C403811109C061
:1050F0000E94B4030E947F048091E2008460809348
:10510000E2008091E10080FF17C08091E20080FF03
:1051100013C08091E2008E7F8093E2008091E200D4
:1051200080618093E2008091D80080628093D800F3
:1051300019BC85E08093E9038091E10084FF2BC0D6
:105140008091E20084FF27C080E189BD82E189BDB2
:1051500089B5982F917080FFFBCF8091D8008F7D0B
:105160008093D8008091E1008F7E8093E100809150
:10517000E2008F7E8093E2008091E2008160809364
:10518000E2008091EA03882309F447C084E0809319
:10519000E9038091E9038091E10083FF27C08091BA
:1051A000E20083FF23C08091E100877F8093E100CC
:1051B00082E08093E9031092EA038091E1008E7F00
:1051C0008093E1008091E2008E7F8093E2008091E5
:1051D000E20080618093E20042E060E080E00E94B3
:1051E0004D048091F00088608093F000FF91EF9172
:1051F000BF91AF919F918F917F916F915F914F91EF
:105200003F912F910F900FBE0F901F90189519BCD2
:105210001092E9031092C40374CF8091E30087FDDC
:1052200093E09093E903B5CF78941F921FB61F9235
:1052300011248F939F93AF93BF938091BB03909161
:10524000BC03A091BD03B091BE030196A11DB11D89
:105250008093BB039093BC03A093BD03B093BE03A4
:10526000BF91AF919F918F911F901FBE1F90189576
:105270001F921FB61F9211248F939F93AF93BF93DA
:105280008091BA03811113C08091BB039091BC033C
:10529000A091BD03B091BE034196A11DB11D8093A5
:1052A000BB039093BC03A093BD03B093BE03BF9117
:1052B000AF919F918F911F901FBE1F901895CDB7F2
:1052C000DEB7EC970FB6F894DEBF0FBECDBF85B743
:1052D000806885BF85B7806885BF84B7877F84BFB6
:1052E0000FB6F894A8958091600088618093600063
:1052F000109260000FBE80E890E00FB6F8948093A3
:105300006100909361000FBE80E998E09093710175
:10531000809370010E94C1060E94550E0E94CF0C1E
:105320000E94B4030E947F048091E2008460809315
:10533000E20078948091E9038823A1F01091E900BC
:105340001F709091EC00892F817090FD80E8182BE0
:105350001092E9008091E80083FD0E94C0101F7048
:105360001093E90082E084BD93E095BD9AEF97BD6C
:1053700080936E000E94CB0D811102C00E944A14DE
:1053800004E511E0D8018D918D018F3F11F00E944D
:105390009208B1E00A351B07A9F70AE511E081E69A
:1053A000E82E81E0F82EF80181918F018F3F11F0F6
:1053B0000E949208E016F106B1F786E0EAE3F2E017
:1053C000DF01282F1D922A95E9F7EEE1F2E0DF01D7
:1053D0001D928A95E9F790E080E00E94C630883EF1
:1053E0009E4F21F40E94CB0D811102C00E94BD1777
:1053F00082E090E00E94BE30809326020E94E40D7D
:105400009093C0038093BF030E94A40EEFEFF6E7D2
:1054100021E0E150F0402040E1F700C000000E9490
:10542000A40E80913A0280FF08C06FEF7FEF90E0FA
:1054300080E00E94EA300E943C0583E090E00E94F8
:10544000BE300E94A5108CE090E00E94BE3090E03B
:10545000B0E0A0E08093E7029093E802A093E90215
:10546000B093EA028091BF0380688093BF0380916C
:10547000BF039091C0030E94A40C80E091E0909340
:10548000B7038093B603B8E16B2E712C8AE392E0E8
:1054900016E0512E580E5E013BE2A30EB11C809126
:1054A000E903A0E4FA2E00E112E1853009F482C09C
:1054B0000E94A40EE7E2EE2EE2E0FE2EFAE3CF2EEB
:1054C000F2E0DF2ED601F70191918D9142E0ED32AD
:1054D000F40709F479C09817B9F310E0D6010D91DB
:1054E0006D01F70141907F01401619F14026912C82
:1054F00088248394842D8821A1F098AE19AF91E07F
:10550000802F882109F490E09AAF0E945C058160A9
:10551000782F9CAF8BAF48AD59AD6AAD8CAD0E9472
:1055200079249394880CF7E09F12E4CFF701319728
:1055300000831F5F163091F68FB7F8944091BB033C
:105540005091BC036091BD037091BE038FBF5CC0DE
:105550008091E903843009F11092BA030FB6F894F0
:10556000A895609260000FBEF092600083B7817FC3
:10557000846083BF83B7816083BF7894889583B745
:105580008E7F83BF0FB6F894A895809160008861E4
:1055900080936000109260000FBE8091E803882322
:1055A00049F00E94A40EEAE3F2E081918111F7C470
:1055B0005E12FBCF8091E903853009F4C9CF0E94C8
:1055C000AA100E94BE0574CF981387CF0E945C0575
:1055D0008C01809124029091250208171907A1F0EF
:1055E0008FEF8BAB8CAB1DAA0E945C058160782F7E
:1055F0009FAB8EAB4BA95CA96DA98FA90E947924A2
:1056000010932502009324020091B2031091B3037A
:105610000115110519F180912D0290912E020E9421
:105620004D057C0188E0D5011D928A95E9F7B50109
:10563000C8010E94370E8E159F0580F48091B20339
:10564000BEE08B9FC0011124FC01EC59FD4F20816D
:1056500022FD04C0815A9D4F0E94D00F80911901F4
:10566000882301F18091B0039091B1030097D1F0AC
:105670000E944D05209134033091350328173907D6
:1056800088F49091AE038091AF03981709F4DCC0C1
:105690000E94E52310923503109234031092B10357
:1056A0001092B0038091270380FF1EC080911801E3
:1056B00082FF1AC00E945C052091300330913103B3
:1056C000AC01421B530B2091160130911701421778
:1056D000530750F02FE232E041E0BC0180913203E9
:1056E000909133030E94EB1686E0E7E4F2E08E012E
:1056F0000F5F1F4FD80101900D928A95E1F710922C
:10570000490210924A0210924B0210924C028B8175
:105710009C81892B91F080914502909146020E94D4
:105720004D05AC0190914102992309F496C08091F6
:1057300014018417150608F49EC08D819E81892B63
:1057400091F080914302909144020E944D05AC017A
:1057500090914002992309F4CFC0809110018417E1
:10576000150608F4D7C046E050E0B80187E492E09F
:105770000E949130892B61F48091490290914A02F4
:10578000892B90914B02892B90914C02892B11F01F
:105790000E94E60686E0F801A7E4B2E001900D92CF
:1057A0008A95E1F70E94BE0590913702891769F04A
:1057B000809337028FB7F8944091BB035091BC039C
:1057C0006091BD037091BE038FBF8091E903843067
:1057D00009F065CE83E08093E9008091E80082FFC4
:1057E0005ECE8091E80090E085FF0AC00E94D3035E
:1057F00070E2C72ED12C7801882309F4D6C091E03D
:105800008091E8008B778093E800992309F447CED4
:10581000E090E502F090E6028981E114F10409F4D8
:10582000D2C08E3F09F01AC18A81833020F08550A2
:10583000833008F013C1EA81EE3008F00FC1F0E0C8
:10584000E05EFE4C0C9444300E9488231092B10319
:105850001092B0030E94040625CF20911501EAE0C2
:105860002E9F900111242417350708F066CF9F5F03
:105870009093410202C09F3FD1F7FB80FF2059F077
:105880000E94C9079FEF1F140CF491E0899F802D9F
:10589000112480934902FC80FF2059F00E94C9071F
:1058A0009FEF1F140CF491E0899F802D11248093A9
:1058B0004A0230914902332309F43FCF20914A0232
:1058C000222309F43ACF45EB3403C0011124992374
:1058D00059F09093490245EB24039001112433239E
:1058E00039F030934A0229CF81E080934902F3CF07
:1058F00081E080934A0221CF209111018AE0289F04
:10590000900111242417350708F02DCF9F5F909345
:10591000400202C09F3FD1F7FD80FF2059F00E9456
:1059200090079FEF1F140CF491E0899F802D1124A4
:1059300080934B02FE80FF2059F00E9490079FEF5A
:105940001F140CF491E0899F802D112480934C0248
:1059500030914B02332309F406CF20914C022223CD
:1059600009F401CF45EB3403C0011124992359F008
:1059700090934B0245EB240390011124332339F01B
:1059800030934C02F0CE81E080934B02F3CF81E064
:1059900080934C02E8CE8091F100D7018D937D0178
:1059A000B1E0CB1AD10809F42ACF8091E80085FD37
:1059B000F2CF8091E8008B778093E8000E94D303B8
:1059C000882399F31CCF8D3009F4B2C0B0F4843031
:1059D00009F495C040F4823041F108F081C0813073
:1059E00001F18FEF01C3863009F49FC008F492C023
:1059F0008C30B9F780E18A8331C0813109F4F4C079
:105A000040F48F3009F4C2C008F496C00E94550CCF
:105A100025C0833109F413C108F4E8C08E3F09F7AB
:105A20000ACF1A8289E08B8319C08A81823009F4F7
:105A3000FAC28330E1F18130A1F62FB7F89460917A
:105A4000BB037091BC038091BD039091BE032FBF37
:105A50000E944A306B837C838D839E838091E9030F
:105A6000843009F01CCDF090E9003F2D3F70F32EFB
:105A70009091EC00892F817090FD80E8F82A82E0F7
:105A80008093E9008091E80080FF0CC050E040E086
:105A900060E270E0C8010E9404048091E8008E7703
:105AA0008093E8008F2D8F708093E900F8CC80916F
:105AB0000C0190910D01892B89F280913A028B8320
:105AC00080913B028C8380913C028D8380913D02CA
:105AD0008E8380913E028F8380913F028887BECF64
